{
  "abi": [
    {
      "inputs": [],
      "name": "AlreadyMapped",
      "type": "error"
    },
    {
      "inputs": [
        {
          "internalType": "uint256",
          "name": "actualBalance",
          "type": "uint256"
        },
        {
          "internalType": "uint256",
          "name": "expectedBalance",
          "type": "uint256"
        }
      ],
      "name": "BalanceInvariantCheckFailed",
      "type": "error"
    },
    {
      "inputs": [],
      "name": "CantMapETH",
      "type": "error"
    },
    {
      "inputs": [],
      "name": "CantMapIMX",
      "type": "error"
    },
    {
      "inputs": [],
      "name": "CantMapWETH",
      "type": "error"
    },
    {
      "inputs": [],
      "name": "ImxDepositLimitExceeded",
      "type": "error"
    },
    {
      "inputs": [],
      "name": "ImxDepositLimitTooLow",
      "type": "error"
    },
    {
      "inputs": [],
      "name": "InsufficientValue",
      "type": "error"
    },
    {
      "inputs": [],
      "name": "InvalidChildChain",
      "type": "error"
    },
    {
      "inputs": [
        {
          "internalType": "string",
          "name": "reason",
          "type": "string"
        }
      ],
      "name": "InvalidData",
      "type": "error"
    },
    {
      "inputs": [],
      "name": "NoGas",
      "type": "error"
    },
    {
      "inputs": [],
      "name": "NonWrappedNativeTransfer",
      "type": "error"
    },
    {
      "inputs": [],
      "name": "NotBridgeAdaptor",
      "type": "error"
    },
    {
      "inputs": [],
      "name": "NotMapped",
      "type": "error"
    },
    {
      "inputs": [],
      "name": "ZeroAddress",
      "type": "error"
    },
    {
      "inputs": [],
      "name": "ZeroAmount",
      "type": "error"
    },
    {
      "anonymous": false,
      "inputs": [
        {
          "indexed": true,
          "internalType": "address",
          "name": "rootToken",
          "type": "address"
        },
        {
          "indexed": true,
          "internalType": "address",
          "name": "childToken",
          "type": "address"
        },
        {
          "indexed": false,
          "internalType": "address",
          "name": "depositor",
          "type": "address"
        },
        {
          "indexed": true,
          "internalType": "address",
          "name": "receiver",
          "type": "address"
        },
        {
          "indexed": false,
          "internalType": "uint256",
          "name": "amount",
          "type": "uint256"
        }
      ],
      "name": "ChildChainERC20Deposit",
      "type": "event"
    },
    {
      "anonymous": false,
      "inputs": [
        {
          "indexed": true,
          "internalType": "address",
          "name": "rootToken",
          "type": "address"
        },
        {
          "indexed": false,
          "internalType": "address",
          "name": "depositor",
          "type": "address"
        },
        {
          "indexed": true,
          "internalType": "address",
          "name": "receiver",
          "type": "address"
        },
        {
          "indexed": false,
          "internalType": "uint256",
          "name": "amount",
          "type": "uint256"
        }
      ],
      "name": "IMXDeposit",
      "type": "event"
    },
    {
      "anonymous": false,
      "inputs": [
        {
          "indexed": false,
          "internalType": "uint8",
          "name": "version",
          "type": "uint8"
        }
      ],
      "name": "Initialized",
      "type": "event"
    },
    {
      "anonymous": false,
      "inputs": [
        {
          "indexed": true,
          "internalType": "address",
          "name": "rootToken",
          "type": "address"
        },
        {
          "indexed": true,
          "internalType": "address",
          "name": "childToken",
          "type": "address"
        }
      ],
      "name": "L1TokenMapped",
      "type": "event"
    },
    {
      "anonymous": false,
      "inputs": [
        {
          "indexed": true,
          "internalType": "address",
          "name": "rootToken",
          "type": "address"
        },
        {
          "indexed": true,
          "internalType": "address",
          "name": "childToken",
          "type": "address"
        },
        {
          "indexed": false,
          "internalType": "address",
          "name": "depositor",
          "type": "address"
        },
        {
          "indexed": true,
          "internalType": "address",
          "name": "receiver",
          "type": "address"
        },
        {
          "indexed": false,
          "internalType": "uint256",
          "name": "amount",
          "type": "uint256"
        }
      ],
      "name": "NativeEthDeposit",
      "type": "event"
    },
    {
      "anonymous": false,
      "inputs": [
        {
          "indexed": false,
          "internalType": "uint256",
          "name": "oldImxDepositLimit",
          "type": "uint256"
        },
        {
          "indexed": false,
          "internalType": "uint256",
          "name": "newImxDepositLimit",
          "type": "uint256"
        }
      ],
      "name": "NewImxDepositLimit",
      "type": "event"
    },
    {
      "anonymous": false,
      "inputs": [
        {
          "indexed": false,
          "internalType": "address",
          "name": "account",
          "type": "address"
        }
      ],
      "name": "Paused",
      "type": "event"
    },
    {
      "anonymous": false,
      "inputs": [
        {
          "indexed": true,
          "internalType": "bytes32",
          "name": "role",
          "type": "bytes32"
        },
        {
          "indexed": true,
          "internalType": "bytes32",
          "name": "previousAdminRole",
          "type": "bytes32"
        },
        {
          "indexed": true,
          "internalType": "bytes32",
          "name": "newAdminRole",
          "type": "bytes32"
        }
      ],
      "name": "RoleAdminChanged",
      "type": "event"
    },
    {
      "anonymous": false,
      "inputs": [
        {
          "indexed": true,
          "internalType": "bytes32",
          "name": "role",
          "type": "bytes32"
        },
        {
          "indexed": true,
          "internalType": "address",
          "name": "account",
          "type": "address"
        },
        {
          "indexed": true,
          "internalType": "address",
          "name": "sender",
          "type": "address"
        }
      ],
      "name": "RoleGranted",
      "type": "event"
    },
    {
      "anonymous": false,
      "inputs": [
        {
          "indexed": true,
          "internalType": "bytes32",
          "name": "role",
          "type": "bytes32"
        },
        {
          "indexed": true,
          "internalType": "address",
          "name": "account",
          "type": "address"
        },
        {
          "indexed": true,
          "internalType": "address",
          "name": "sender",
          "type": "address"
        }
      ],
      "name": "RoleRevoked",
      "type": "event"
    },
    {
      "anonymous": false,
      "inputs": [
        {
          "indexed": false,
          "internalType": "address",
          "name": "oldRootBridgeAdaptor",
          "type": "address"
        },
        {
          "indexed": false,
          "internalType": "address",
          "name": "newRootBridgeAdaptor",
          "type": "address"
        }
      ],
      "name": "RootBridgeAdaptorUpdated",
      "type": "event"
    },
    {
      "anonymous": false,
      "inputs": [
        {
          "indexed": true,
          "internalType": "address",
          "name": "rootToken",
          "type": "address"
        },
        {
          "indexed": true,
          "internalType": "address",
          "name": "childToken",
          "type": "address"
        },
        {
          "indexed": false,
          "internalType": "address",
          "name": "withdrawer",
          "type": "address"
        },
        {
          "indexed": true,
          "internalType": "address",
          "name": "receiver",
          "type": "address"
        },
        {
          "indexed": false,
          "internalType": "uint256",
          "name": "amount",
          "type": "uint256"
        }
      ],
      "name": "RootChainERC20Withdraw",
      "type": "event"
    },
    {
      "anonymous": false,
      "inputs": [
        {
          "indexed": true,
          "internalType": "address",
          "name": "rootToken",
          "type": "address"
        },
        {
          "indexed": true,
          "internalType": "address",
          "name": "childToken",
          "type": "address"
        },
        {
          "indexed": false,
          "internalType": "address",
          "name": "withdrawer",
          "type": "address"
        },
        {
          "indexed": true,
          "internalType": "address",
          "name": "receiver",
          "type": "address"
        },
        {
          "indexed": false,
          "internalType": "uint256",
          "name": "amount",
          "type": "uint256"
        }
      ],
      "name": "RootChainETHWithdraw",
      "type": "event"
    },
    {
      "anonymous": false,
      "inputs": [
        {
          "indexed": false,
          "internalType": "address",
          "name": "account",
          "type": "address"
        }
      ],
      "name": "Unpaused",
      "type": "event"
    },
    {
      "anonymous": false,
      "inputs": [
        {
          "indexed": true,
          "internalType": "address",
          "name": "rootToken",
          "type": "address"
        },
        {
          "indexed": true,
          "internalType": "address",
          "name": "childToken",
          "type": "address"
        },
        {
          "indexed": false,
          "internalType": "address",
          "name": "depositor",
          "type": "address"
        },
        {
          "indexed": true,
          "internalType": "address",
          "name": "receiver",
          "type": "address"
        },
        {
          "indexed": false,
          "internalType": "uint256",
          "name": "amount",
          "type": "uint256"
        }
      ],
      "name": "WETHDeposit",
      "type": "event"
    },
    {
      "inputs": [],
      "name": "ADAPTOR_MANAGER_ROLE",
      "outputs": [
        {
          "internalType": "bytes32",
          "name": "",
          "type": "bytes32"
        }
      ],
      "stateMutability": "view",
      "type": "function"
    },
    {
      "inputs": [],
      "name": "DEFAULT_ADMIN_ROLE",
      "outputs": [
        {
          "internalType": "bytes32",
          "name": "",
          "type": "bytes32"
        }
      ],
      "stateMutability": "view",
      "type": "function"
    },
    {
      "inputs": [],
      "name": "DEPOSIT_SIG",
      "outputs": [
        {
          "internalType": "bytes32",
          "name": "",
          "type": "bytes32"
        }
      ],
      "stateMutability": "view",
      "type": "function"
    },
    {
      "inputs": [],
      "name": "MAP_TOKEN_SIG",
      "outputs": [
        {
          "internalType": "bytes32",
          "name": "",
          "type": "bytes32"
        }
      ],
      "stateMutability": "view",
      "type": "function"
    },
    {
      "inputs": [],
      "name": "NATIVE_ETH",
      "outputs": [
        {
          "internalType": "address",
          "name": "",
          "type": "address"
        }
      ],
      "stateMutability": "view",
      "type": "function"
    },
    {
      "inputs": [],
      "name": "NATIVE_IMX",
      "outputs": [
        {
          "internalType": "address",
          "name": "",
          "type": "address"
        }
      ],
      "stateMutability": "view",
      "type": "function"
    },
    {
      "inputs": [],
      "name": "PAUSER_ROLE",
      "outputs": [
        {
          "internalType": "bytes32",
          "name": "",
          "type": "bytes32"
        }
      ],
      "stateMutability": "view",
      "type": "function"
    },
    {
      "inputs": [],
      "name": "UNLIMITED_DEPOSIT",
      "outputs": [
        {
          "internalType": "uint256",
          "name": "",
          "type": "uint256"
        }
      ],
      "stateMutability": "view",
      "type": "function"
    },
    {
      "inputs": [],
      "name": "UNPAUSER_ROLE",
      "outputs": [
        {
          "internalType": "bytes32",
          "name": "",
          "type": "bytes32"
        }
      ],
      "stateMutability": "view",
      "type": "function"
    },
    {
      "inputs": [],
      "name": "VARIABLE_MANAGER_ROLE",
      "outputs": [
        {
          "internalType": "bytes32",
          "name": "",
          "type": "bytes32"
        }
      ],
      "stateMutability": "view",
      "type": "function"
    },
    {
      "inputs": [],
      "name": "WITHDRAW_SIG",
      "outputs": [
        {
          "internalType": "bytes32",
          "name": "",
          "type": "bytes32"
        }
      ],
      "stateMutability": "view",
      "type": "function"
    },
    {
      "inputs": [],
      "name": "childERC20Bridge",
      "outputs": [
        {
          "internalType": "address",
          "name": "",
          "type": "address"
        }
      ],
      "stateMutability": "view",
      "type": "function"
    },
    {
      "inputs": [],
      "name": "childETHToken",
      "outputs": [
        {
          "internalType": "address",
          "name": "",
          "type": "address"
        }
      ],
      "stateMutability": "view",
      "type": "function"
    },
    {
      "inputs": [],
      "name": "childTokenTemplate",
      "outputs": [
        {
          "internalType": "address",
          "name": "",
          "type": "address"
        }
      ],
      "stateMutability": "view",
      "type": "function"
    },
    {
      "inputs": [
        {
          "internalType": "contract IERC20Metadata",
          "name": "rootToken",
          "type": "address"
        },
        {
          "internalType": "uint256",
          "name": "amount",
          "type": "uint256"
        }
      ],
      "name": "deposit",
      "outputs": [],
      "stateMutability": "payable",
      "type": "function"
    },
    {
      "inputs": [
        {
          "internalType": "uint256",
          "name": "amount",
          "type": "uint256"
        }
      ],
      "name": "depositETH",
      "outputs": [],
      "stateMutability": "payable",
      "type": "function"
    },
    {
      "inputs": [
        {
          "internalType": "contract IERC20Metadata",
          "name": "rootToken",
          "type": "address"
        },
        {
          "internalType": "address",
          "name": "receiver",
          "type": "address"
        },
        {
          "internalType": "uint256",
          "name": "amount",
          "type": "uint256"
        }
      ],
      "name": "depositTo",
      "outputs": [],
      "stateMutability": "payable",
      "type": "function"
    },
    {
      "inputs": [
        {
          "internalType": "address",
          "name": "receiver",
          "type": "address"
        },
        {
          "internalType": "uint256",
          "name": "amount",
          "type": "uint256"
        }
      ],
      "name": "depositToETH",
      "outputs": [],
      "stateMutability": "payable",
      "type": "function"
    },
    {
      "inputs": [
        {
          "internalType": "bytes32",
          "name": "role",
          "type": "bytes32"
        }
      ],
      "name": "getRoleAdmin",
      "outputs": [
        {
          "internalType": "bytes32",
          "name": "",
          "type": "bytes32"
        }
      ],
      "stateMutability": "view",
      "type": "function"
    },
    {
      "inputs": [
        {
          "internalType": "address",
          "name": "account",
          "type": "address"
        }
      ],
      "name": "grantAdaptorManagerRole",
      "outputs": [],
      "stateMutability": "nonpayable",
      "type": "function"
    },
    {
      "inputs": [
        {
          "internalType": "address",
          "name": "account",
          "type": "address"
        }
      ],
      "name": "grantPauserRole",
      "outputs": [],
      "stateMutability": "nonpayable",
      "type": "function"
    },
    {
      "inputs": [
        {
          "internalType": "bytes32",
          "name": "role",
          "type": "bytes32"
        },
        {
          "internalType": "address",
          "name": "account",
          "type": "address"
        }
      ],
      "name": "grantRole",
      "outputs": [],
      "stateMutability": "nonpayable",
      "type": "function"
    },
    {
      "inputs": [
        {
          "internalType": "address",
          "name": "account",
          "type": "address"
        }
      ],
      "name": "grantUnpauserRole",
      "outputs": [],
      "stateMutability": "nonpayable",
      "type": "function"
    },
    {
      "inputs": [
        {
          "internalType": "address",
          "name": "account",
          "type": "address"
        }
      ],
      "name": "grantVariableManagerRole",
      "outputs": [],
      "stateMutability": "nonpayable",
      "type": "function"
    },
    {
      "inputs": [
        {
          "internalType": "bytes32",
          "name": "role",
          "type": "bytes32"
        },
        {
          "internalType": "address",
          "name": "account",
          "type": "address"
        }
      ],
      "name": "hasRole",
      "outputs": [
        {
          "internalType": "bool",
          "name": "",
          "type": "bool"
        }
      ],
      "stateMutability": "view",
      "type": "function"
    },
    {
      "inputs": [],
      "name": "imxCumulativeDepositLimit",
      "outputs": [
        {
          "internalType": "uint256",
          "name": "",
          "type": "uint256"
        }
      ],
      "stateMutability": "view",
      "type": "function"
    },
    {
      "inputs": [
        {
          "components": [
            {
              "internalType": "address",
              "name": "defaultAdmin",
              "type": "address"
            },
            {
              "internalType": "address",
              "name": "pauser",
              "type": "address"
            },
            {
              "internalType": "address",
              "name": "unpauser",
              "type": "address"
            },
            {
              "internalType": "address",
              "name": "variableManager",
              "type": "address"
            },
            {
              "internalType": "address",
              "name": "adaptorManager",
              "type": "address"
            }
          ],
          "internalType": "struct IRootERC20Bridge.InitializationRoles",
          "name": "newRoles",
          "type": "tuple"
        },
        {
          "internalType": "address",
          "name": "newRootBridgeAdaptor",
          "type": "address"
        },
        {
          "internalType": "address",
          "name": "newChildERC20Bridge",
          "type": "address"
        },
        {
          "internalType": "address",
          "name": "newChildTokenTemplate",
          "type": "address"
        },
        {
          "internalType": "address",
          "name": "newRootIMXToken",
          "type": "address"
        },
        {
          "internalType": "address",
          "name": "newRootWETHToken",
          "type": "address"
        },
        {
          "internalType": "uint256",
          "name": "newImxCumulativeDepositLimit",
          "type": "uint256"
        }
      ],
      "name": "initialize",
      "outputs": [],
      "stateMutability": "nonpayable",
      "type": "function"
    },
    {
      "inputs": [
        {
          "internalType": "contract IERC20Metadata",
          "name": "rootToken",
          "type": "address"
        }
      ],
      "name": "mapToken",
      "outputs": [
        {
          "internalType": "address",
          "name": "",
          "type": "address"
        }
      ],
      "stateMutability": "payable",
      "type": "function"
    },
    {
      "inputs": [
        {
          "internalType": "bytes",
          "name": "data",
          "type": "bytes"
        }
      ],
      "name": "onMessageReceive",
      "outputs": [],
      "stateMutability": "nonpayable",
      "type": "function"
    },
    {
      "inputs": [],
      "name": "pause",
      "outputs": [],
      "stateMutability": "nonpayable",
      "type": "function"
    },
    {
      "inputs": [],
      "name": "paused",
      "outputs": [
        {
          "internalType": "bool",
          "name": "",
          "type": "bool"
        }
      ],
      "stateMutability": "view",
      "type": "function"
    },
    {
      "inputs": [
        {
          "internalType": "bytes32",
          "name": "role",
          "type": "bytes32"
        },
        {
          "internalType": "address",
          "name": "account",
          "type": "address"
        }
      ],
      "name": "renounceRole",
      "outputs": [],
      "stateMutability": "nonpayable",
      "type": "function"
    },
    {
      "inputs": [
        {
          "internalType": "address",
          "name": "account",
          "type": "address"
        }
      ],
      "name": "revokeAdaptorManagerRole",
      "outputs": [],
      "stateMutability": "nonpayable",
      "type": "function"
    },
    {
      "inputs": [
        {
          "internalType": "address",
          "name": "account",
          "type": "address"
        }
      ],
      "name": "revokePauserRole",
      "outputs": [],
      "stateMutability": "nonpayable",
      "type": "function"
    },
    {
      "inputs": [
        {
          "internalType": "bytes32",
          "name": "role",
          "type": "bytes32"
        },
        {
          "internalType": "address",
          "name": "account",
          "type": "address"
        }
      ],
      "name": "revokeRole",
      "outputs": [],
      "stateMutability": "nonpayable",
      "type": "function"
    },
    {
      "inputs": [
        {
          "internalType": "address",
          "name": "account",
          "type": "address"
        }
      ],
      "name": "revokeUnpauserRole",
      "outputs": [],
      "stateMutability": "nonpayable",
      "type": "function"
    },
    {
      "inputs": [
        {
          "internalType": "address",
          "name": "account",
          "type": "address"
        }
      ],
      "name": "revokeVariableManagerRole",
      "outputs": [],
      "stateMutability": "nonpayable",
      "type": "function"
    },
    {
      "inputs": [],
      "name": "rootBridgeAdaptor",
      "outputs": [
        {
          "internalType": "contract IRootBridgeAdaptor",
          "name": "",
          "type": "address"
        }
      ],
      "stateMutability": "view",
      "type": "function"
    },
    {
      "inputs": [],
      "name": "rootIMXToken",
      "outputs": [
        {
          "internalType": "address",
          "name": "",
          "type": "address"
        }
      ],
      "stateMutability": "view",
      "type": "function"
    },
    {
      "inputs": [
        {
          "internalType": "address",
          "name": "",
          "type": "address"
        }
      ],
      "name": "rootTokenToChildToken",
      "outputs": [
        {
          "internalType": "address",
          "name": "",
          "type": "address"
        }
      ],
      "stateMutability": "view",
      "type": "function"
    },
    {
      "inputs": [],
      "name": "rootWETHToken",
      "outputs": [
        {
          "internalType": "address",
          "name": "",
          "type": "address"
        }
      ],
      "stateMutability": "view",
      "type": "function"
    },
    {
      "inputs": [
        {
          "internalType": "bytes4",
          "name": "interfaceId",
          "type": "bytes4"
        }
      ],
      "name": "supportsInterface",
      "outputs": [
        {
          "internalType": "bool",
          "name": "",
          "type": "bool"
        }
      ],
      "stateMutability": "view",
      "type": "function"
    },
    {
      "inputs": [],
      "name": "unpause",
      "outputs": [],
      "stateMutability": "nonpayable",
      "type": "function"
    },
    {
      "inputs": [
        {
          "internalType": "uint256",
          "name": "newImxCumulativeDepositLimit",
          "type": "uint256"
        }
      ],
      "name": "updateImxCumulativeDepositLimit",
      "outputs": [],
      "stateMutability": "nonpayable",
      "type": "function"
    },
    {
      "inputs": [
        {
          "internalType": "address",
          "name": "newRootBridgeAdaptor",
          "type": "address"
        }
      ],
      "name": "updateRootBridgeAdaptor",
      "outputs": [],
      "stateMutability": "nonpayable",
      "type": "function"
    },
    {
      "stateMutability": "payable",
      "type": "receive"
    }
  ],
  "bytecode": {
    "object": "0x608060405234801561001057600080fd5b50612fdd806100206000396000f3fe6080604052600436106102765760003560e01c80638456cb591161014f578063d547741f116100c1578063e63ab1e91161007a578063e63ab1e91461079d578063f213159c146107bf578063f4a120f7146107d2578063f6451255146107e5578063f865af0814610819578063fb1bb9de1461083957600080fd5b8063d547741f146106e6578063d68d5fd614610706578063d837671614610726578063da51c71e14610747578063dee1ef0d14610769578063e04104321461078a57600080fd5b8063a217fddf11610113578063a217fddf146104e5578063a8deae561461061d578063b17680651461063d578063b68ad1e414610671578063c880d91514610692578063d41f1771146106b257600080fd5b80638456cb591461058757806389c65d411461059c5780638c956990146105bc5780638f70121f146105dd57806391d14854146105fd57600080fd5b806347e7ef24116101e857806367e4e189116101ac57806367e4e189146104ce57806368673a03146104e55780636c11c21c146104fa5780637248c77c1461051a5780637ab5e3ae1461053a5780637efab4f51461055057600080fd5b806347e7ef241461044f578063499fa04b146104625780635358fbda146104835780635c975abb146104965780636066ae87146104ae57600080fd5b80632540e2da1161023a5780632540e2da1461039857806326fe4fc3146103b85780632f2ff15d146103da57806332968782146103fa57806336568abe1461041a5780633f4ba83a1461043a57600080fd5b8063011e1167146102b657806301ffc9a7146102e957806307b2b7ad14610319578063106d572614610339578063248a9ca31461035a57600080fd5b366102b15761028361085b565b610133546001600160a01b031633146102af57604051630402506f60e01b815260040160405180910390fd5b005b600080fd5b3480156102c257600080fd5b506102cc610eee81565b6040516001600160a01b0390911681526020015b60405180910390f35b3480156102f557600080fd5b50610309610304366004612898565b6108a8565b60405190151581526020016102e0565b34801561032557600080fd5b506102af6103343660046128e2565b6108df565b34801561034557600080fd5b5061012f546102cc906001600160a01b031681565b34801561036657600080fd5b5061038a6103753660046128ff565b60009081526065602052604090206001015490565b6040519081526020016102e0565b3480156103a457600080fd5b506102af6103b33660046128e2565b610906565b3480156103c457600080fd5b5061038a600080516020612f8883398151915281565b3480156103e657600080fd5b506102af6103f5366004612918565b610929565b34801561040657600080fd5b506102af6104153660046128e2565b610953565b34801561042657600080fd5b506102af610435366004612918565b610976565b34801561044657600080fd5b506102af6109f0565b6102af61045d366004612948565b610a13565b34801561046e57600080fd5b5061012e546102cc906001600160a01b031681565b6102af6104913660046128ff565b610a1e565b3480156104a257600080fd5b5060975460ff16610309565b3480156104ba57600080fd5b506102af6104c93660046128e2565b610a28565b3480156104da57600080fd5b5061038a6101345481565b3480156104f157600080fd5b5061038a600081565b34801561050657600080fd5b506102af6105153660046128e2565b610a4b565b34801561052657600080fd5b506102af610535366004612974565b610a6e565b34801561054657600080fd5b506102cc610fff81565b34801561055c57600080fd5b506102cc61056b3660046128e2565b61012d602052600090815260409020546001600160a01b031681565b34801561059357600080fd5b506102af610bb4565b3480156105a857600080fd5b506102af6105b73660046128e2565b610bd4565b3480156105c857600080fd5b50610131546102cc906001600160a01b031681565b3480156105e957600080fd5b506102af6105f83660046128e2565b610bf7565b34801561060957600080fd5b50610309610618366004612918565b610c1a565b34801561062957600080fd5b506102af6106383660046128e2565b610c45565b34801561064957600080fd5b5061038a7f7a8dc26796a1e50e6e190b70259f58f6a4edd5b22280ceecc82b687b8e98286981565b34801561067d57600080fd5b50610130546102cc906001600160a01b031681565b34801561069e57600080fd5b506102af6106ad366004612a25565b610cf0565b3480156106be57600080fd5b5061038a7f87a7811f4bfedea3d341ad165680ae306b01aaeacc205d227629cf157dd9f82181565b3480156106f257600080fd5b506102af610701366004612918565b610e0f565b34801561071257600080fd5b506102af6107213660046128ff565b610e34565b34801561073257600080fd5b50610133546102cc906001600160a01b031681565b34801561075357600080fd5b5061038a600080516020612f2883398151915281565b34801561077557600080fd5b50610132546102cc906001600160a01b031681565b6102af610798366004612948565b610f28565b3480156107a957600080fd5b5061038a600080516020612f6883398151915281565b6102af6107cd366004612b10565b610f32565b6102cc6107e03660046128e2565b610f3d565b3480156107f157600080fd5b5061038a7f2cef46a936bdc5b7e6e8c71aa04560c41cf7d88bb26901a7e7f4936ff02accad81565b34801561082557600080fd5b506102af6108343660046128e2565b610f55565b34801561084557600080fd5b5061038a600080516020612f4883398151915281565b60975460ff16156108a65760405162461bcd60e51b815260206004820152601060248201526f14185d5cd8589b194e881c185d5cd95960821b60448201526064015b60405180910390fd5b565b60006001600160e01b03198216637965db0b60e01b14806108d957506301ffc9a760e01b6001600160e01b03198316145b92915050565b60006108ea81610f78565b610902600080516020612f8883398151915283610929565b5050565b600061091181610f78565b610902600080516020612f4883398151915283610e0f565b60008281526065602052604090206001015461094481610f78565b61094e8383610f82565b505050565b600061095e81610f78565b610902600080516020612f4883398151915283610929565b6001600160a01b03811633146109e65760405162461bcd60e51b815260206004820152602f60248201527f416363657373436f6e74726f6c3a2063616e206f6e6c792072656e6f756e636560448201526e103937b632b9903337b91039b2b63360891b606482015260840161089d565b6109028282611008565b600080516020612f48833981519152610a0881610f78565b610a1061106f565b50565b6109028233836110c1565b610a1033826110ed565b6000610a3381610f78565b610902600080516020612f8883398151915283610e0f565b6000610a5681610f78565b610902600080516020612f6883398151915283610929565b610a7661085b565b61012e546001600160a01b03163314610aa25760405163122d54c760e11b815260040160405180910390fd5b60208111610ae45760405163180a097760e01b815260206004820152600e60248201526d11185d18481d1bdbc81cda1bdc9d60921b604482015260640161089d565b7f7a8dc26796a1e50e6e190b70259f58f6a4edd5b22280ceecc82b687b8e982869610b13602060008486612b51565b610b1c91612b7b565b03610b6b57610902610b318260208186612b51565b8080601f01602080910402602001604051908101604052809392919081815260200183838082843760009201919091525061115c92505050565b60405163180a097760e01b815260206004820152601c60248201527f556e737570706f7274656420616374696f6e207369676e617475726500000000604482015260640161089d565b600080516020612f68833981519152610bcc81610f78565b610a1061118c565b6000610bdf81610f78565b610902600080516020612f2883398151915283610e0f565b6000610c0281610f78565b610902600080516020612f2883398151915283610929565b60009182526065602090815260408084206001600160a01b0393909316845291905290205460ff1690565b600080516020612f28833981519152610c5d81610f78565b6001600160a01b038216610c845760405163d92e233d60e01b815260040160405180910390fd5b61012e54604080516001600160a01b03928316815291841660208301527f9f505d2f223df1f36d2bbc40c8817da20509a9722f3fc09d005bb9d5df154210910160405180910390a15061012e80546001600160a01b0319166001600160a01b0392909216919091179055565b600054610100900460ff1615808015610d105750600054600160ff909116105b80610d2a5750303b158015610d2a575060005460ff166001145b610d8d5760405162461bcd60e51b815260206004820152602e60248201527f496e697469616c697a61626c653a20636f6e747261637420697320616c72656160448201526d191e481a5b9a5d1a585b1a5e995960921b606482015260840161089d565b6000805460ff191660011790558015610db0576000805461ff0019166101001790555b610dbf888888888888886111c9565b8015610e05576000805461ff0019169055604051600181527f7f26b83ff96e1f2b6a682f133852f6798a09c465da95921460cefb38474024989060200160405180910390a15b5050505050505050565b600082815260656020526040902060010154610e2a81610f78565b61094e8383611008565b600080516020612f88833981519152610e4c81610f78565b8115801590610ec65750610131546040516370a0823160e01b81523060048201526001600160a01b03909116906370a0823190602401602060405180830381865afa158015610e9f573d6000803e3d6000fd5b505050506040513d601f19601f82011682018060405250810190610ec39190612b99565b82105b15610ee4576040516308c4bd0b60e11b815260040160405180910390fd5b6101345460408051918252602082018490527f20f79e1e156e9d4acad9184b2d8283c178ddb9638463180bf2176285b77ab76b910160405180910390a15061013455565b61090282826110ed565b61094e8383836110c1565b6000610f4761085b565b6108d98261146b565b919050565b6000610f6081610f78565b610902600080516020612f6883398151915283610e0f565b610a108133611820565b610f8c8282610c1a565b6109025760008281526065602090815260408083206001600160a01b03851684529091529020805460ff19166001179055610fc43390565b6001600160a01b0316816001600160a01b0316837f2f8788117e7eff1d82e926ec794901d17c78024a50270940304540a733656f0d60405160405180910390a45050565b6110128282610c1a565b156109025760008281526065602090815260408083206001600160a01b0385168085529252808320805460ff1916905551339285917ff6391f5c32d9c69d2a47ea670b442974b53935d1edc7fd64eb21e047a839171b9190a45050565b611077611879565b6097805460ff191690557f5db9ee0a495bf2e6ff9c91a7834c1ba4fdd244a5e8aa4e537bd38aeae4b073aa335b6040516001600160a01b03909116815260200160405180910390a1565b610133546001600160a01b03908116908416036110e25761094e82826118c2565b61094e838383611990565b8034101561110e5760405163044044a560e21b815260040160405180910390fd5b600061111a8234612bc8565b6111249047612bc8565b9050611133610eee8484611b0f565b80471461094e57604051637244981560e11b81524760048201526024810182905260440161089d565b600080600080600061116d86611dbe565b945094509450945094506111848585858585611e98565b505050505050565b61119461085b565b6097805460ff191660011790557f62e78cea01bee320cd4e420270b5ea74000d11b0c9f74754ebdbfc544b05a2586110a43390565b6001600160a01b03861615806111e657506001600160a01b038516155b806111f857506001600160a01b038416155b8061120a57506001600160a01b038316155b8061121c57506001600160a01b038216155b8061122f575086516001600160a01b0316155b80611245575060208701516001600160a01b0316155b8061125b575060408701516001600160a01b0316155b80611271575060608701516001600160a01b0316155b80611287575060808701516001600160a01b0316155b156112a55760405163d92e233d60e01b815260040160405180910390fd5b6112ad611f7c565b6112b5611fa3565b6112bd611fd2565b86516112cb90600090610f82565b6112e7600080516020612f688339815191528860200151610f82565b611303600080516020612f488339815191528860400151610f82565b61131f600080516020612f888339815191528860600151610f82565b61133b600080516020612f288339815191528860800151610f82565b61012f80546001600160a01b038781166001600160a01b03199283161790925561013080548784169083168117909155610131805487851690841617905561013380549386169390921692909217905560405161077760611b60208201526113cb919060340160408051601f19818403018152919052805160209091012061012f546001600160a01b0316612001565b61013280546001600160a01b03199081166001600160a01b039384161790915561012e805482169883169890981790975561013491909155610131548116600081815261012d602052604080822080548a169093179092557fad76b4044bfa734d1658e7587c3fd33991772c4284f450d12a829695b2e0bd048054610eee908a168117909155610133549093168152208054909616179094555050505050565b60003460000361148e57604051631d3e008d60e21b815260040160405180910390fd5b6001600160a01b0382166114b55760405163d92e233d60e01b815260040160405180910390fd5b610131546001600160a01b03908116908316036114e55760405163a9a43cf960e01b815260040160405180910390fd5b610eed196001600160a01b038316016115115760405163e9edc9b360e01b815260040160405180910390fd5b610133546001600160a01b0390811690831603611541576040516311eba7e360e01b815260040160405180910390fd5b6001600160a01b03828116600090815261012d6020526040902054161561157b57604051632a431ae760e11b815260040160405180910390fd5b61012f54610130546040516bffffffffffffffffffffffff19606086901b1660208201526001600160a01b03928316926000926115d4929116906034016040516020818303038152906040528051906020012084612001565b6001600160a01b03858116600081815261012d602052604080822080546001600160a01b0319169486169490941790935582516306fdde0360e01b81529251939450927f2cef46a936bdc5b7e6e8c71aa04560c41cf7d88bb26901a7e7f4936ff02accad928892916306fdde039160048082019288929091908290030181865afa158015611666573d6000803e3d6000fd5b505050506040513d6000823e601f3d908101601f1916820160405261168e9190810190612bff565b876001600160a01b03166395d89b416040518163ffffffff1660e01b8152600401600060405180830381865afa1580156116cc573d6000803e3d6000fd5b505050506040513d6000823e601f3d908101601f191682016040526116f49190810190612bff565b886001600160a01b031663313ce5676040518163ffffffff1660e01b8152600401602060405180830381865afa158015611732573d6000803e3d6000fd5b505050506040513d601f19601f820116820180604052508101906117569190612ca1565b60405160200161176a959493929190612cf0565b60408051601f198184030181529082905261012e54637903aadd60e11b83529092506001600160a01b03169063f20755ba9034906117ae9085903390600401612d42565b6000604051808303818588803b1580156117c757600080fd5b505af11580156117db573d6000803e3d6000fd5b50506040516001600160a01b038087169450891692507fadbf4fee5f2ebdb59bcf27cd835d152ca7931a51cb921c5f8fdc43cf7c1f33049150600090a3509392505050565b61182a8282610c1a565b610902576118378161205d565b61184283602061206f565b604051602001611853929190612d6c565b60408051601f198184030181529082905262461bcd60e51b825261089d91600401612de1565b60975460ff166108a65760405162461bcd60e51b815260206004820152601460248201527314185d5cd8589b194e881b9bdd081c185d5cd95960621b604482015260640161089d565b60006118ce8247612df4565b610133549091506001600160a01b03166118ea81333086612212565b61013354604051632e1a7d4d60e01b8152600481018590526001600160a01b0390911690632e1a7d4d90602401600060405180830381600087803b15801561193157600080fd5b505af1158015611945573d6000803e3d6000fd5b5050505081471461197257604051637244981560e11b81524760048201526024810183905260440161089d565b6101335461198a906001600160a01b03168585611b0f565b50505050565b6040516370a0823160e01b815230600482015260009082906001600160a01b038616906370a0823190602401602060405180830381865afa1580156119d9573d6000803e3d6000fd5b505050506040513d601f19601f820116820180604052508101906119fd9190612b99565b611a079190612df4565b9050611a14848484611b0f565b6040516370a0823160e01b815230600482015281906001600160a01b038616906370a0823190602401602060405180830381865afa158015611a5a573d6000803e3d6000fd5b505050506040513d601f19601f82011682018060405250810190611a7e9190612b99565b1461198a576040516370a0823160e01b81523060048201526001600160a01b038516906370a0823190602401602060405180830381865afa158015611ac7573d6000803e3d6000fd5b505050506040513d601f19601f82011682018060405250810190611aeb9190612b99565b604051637244981560e11b815260048101919091526024810182905260440161089d565b611b1761227d565b611b1f61085b565b6101315461013454849183916001600160a01b0391821691841682148015611b4657508015155b15611be0576040516370a0823160e01b8152306004820152819084906001600160a01b038516906370a0823190602401602060405180830381865afa158015611b93573d6000803e3d6000fd5b505050506040513d601f19601f82011682018060405250810190611bb79190612b99565b611bc19190612df4565b1115611be05760405163cf79cc9b60e01b815260040160405180910390fd5b6001600160a01b0386161580611bfd57506001600160a01b038716155b15611c1b5760405163d92e233d60e01b815260040160405180910390fd5b84600003611c3c57604051631f2a200560e01b815260040160405180910390fd5b34600003611c5d57604051631d3e008d60e21b815260040160405180910390fd5b6001600160a01b03878116600090815261012d602052604090205416611c9657604051633a3c22ef60e11b815260040160405180910390fd5b610133546000906001600160a01b03898116911614611cb55787611cb9565b610eee5b604080517f87a7811f4bfedea3d341ad165680ae306b01aaeacc205d227629cf157dd9f82160208201526001600160a01b03838116828401523360608301528a8116608083015260a08083018b90528351808403909101815260c09092019092529192506000908a16610eee14611d305734611d3a565b611d3a8834612bc8565b61012e54604051637903aadd60e11b81529192506001600160a01b03169063f20755ba908390611d709086903390600401612d42565b6000604051808303818588803b158015611d8957600080fd5b505af1158015611d9d573d6000803e3d6000fd5b5050505050611dad8a8a8a6122d6565b5050505050505061094e600160fb55565b600080600080600085806020019051810190611dda9190612e07565b929750909450925090506001600160a01b038516611e0b5760405163d92e233d60e01b815260040160405180910390fd5b610131546001600160a01b0390811690861603611e2c57610fff9350611e8f565b610eed196001600160a01b03861601611e5357610132546001600160a01b03169350611e8f565b6001600160a01b03808616600090815261012d602052604090205416935083611e8f57604051633a3c22ef60e11b815260040160405180910390fd5b91939590929450565b611ea061085b565b610eed196001600160a01b03861601611f1157611ebd8282612490565b604080516001600160a01b038581168252602082018490528085169290871691610eee917f4327909ba044fbe8b04a4d999929cd91a03b30ebfae467b54c16353a44660f43910160405180910390a4611f75565b611f256001600160a01b03861683836125a9565b604080516001600160a01b038581168252602082018490528085169287821692918916917f6e90696e59c60d3ffd22a244d98b9d73dae6642f03b99cd4d3e5aa852121443b910160405180910390a45b5050505050565b600054610100900460ff166108a65760405162461bcd60e51b815260040161089d90612e5a565b600054610100900460ff16611fca5760405162461bcd60e51b815260040161089d90612e5a565b6108a66125d9565b600054610100900460ff16611ff95760405162461bcd60e51b815260040161089d90612e5a565b6108a661260c565b60405160388101919091526f5af43d82803e903d91602b57fd5bf3ff60248201526014810192909252733d602d80600a3d3981f3363d3d373d3d3d363d73825260588201526037600c8201206078820152605560439091012090565b60606108d96001600160a01b03831660145b6060600061207e836002612ea5565b612089906002612df4565b67ffffffffffffffff8111156120a1576120a16129e6565b6040519080825280601f01601f1916602001820160405280156120cb576020820181803683370190505b509050600360fc1b816000815181106120e6576120e6612ebc565b60200101906001600160f81b031916908160001a905350600f60fb1b8160018151811061211557612115612ebc565b60200101906001600160f81b031916908160001a9053506000612139846002612ea5565b612144906001612df4565b90505b60018111156121bc576f181899199a1a9b1b9c1cb0b131b232b360811b85600f166010811061217857612178612ebc565b1a60f81b82828151811061218e5761218e612ebc565b60200101906001600160f81b031916908160001a90535060049490941c936121b581612ed2565b9050612147565b50831561220b5760405162461bcd60e51b815260206004820181905260248201527f537472696e67733a20686578206c656e67746820696e73756666696369656e74604482015260640161089d565b9392505050565b6040516001600160a01b038085166024830152831660448201526064810182905261198a9085906323b872dd60e01b906084015b60408051601f198184030181529190526020810180516001600160e01b03166001600160e01b031990931692909217909152612633565b600260fb54036122cf5760405162461bcd60e51b815260206004820152601f60248201527f5265656e7472616e637947756172643a207265656e7472616e742063616c6c00604482015260640161089d565b600260fb55565b610eed196001600160a01b0384160161233f576101325460408051338152602081018490526001600160a01b0385811693811692908716917fd1b4e24e81f1c901551420568a9447fd105593af143ae8b096c6385e4fb7ec8691015b60405180910390a4505050565b610133546001600160a01b03908116908416036123a3576101325460408051338152602081018490526001600160a01b0385811693811692908716917fa88fe860ecdd7b9e7311676f780fe08f0ed96990b74319e26ad505932d36890f9101612332565b610131546001600160a01b03908116908416036124185760408051338152602081018390526001600160a01b0380851692908616917f8294ebca1c2aada95b98b62a8d705ba5d7be4bdb75901d3f0eeb35062b706c79910160405180910390a361094e6001600160a01b038416333084612212565b6001600160a01b03838116600081815261012d6020908152604091829020548251338152918201869052868516941692917f3207f1f801a6ba9b6005cb9dc97d8498df3407dc7b1c7a644c7b57997f4f03c5910160405180910390a461094e6001600160a01b038416333084612212565b600160fb55565b804710156124e05760405162461bcd60e51b815260206004820152601d60248201527f416464726573733a20696e73756666696369656e742062616c616e6365000000604482015260640161089d565b6000826001600160a01b03168260405160006040518083038185875af1925050503d806000811461252d576040519150601f19603f3d011682016040523d82523d6000602084013e612532565b606091505b505090508061094e5760405162461bcd60e51b815260206004820152603a60248201527f416464726573733a20756e61626c6520746f2073656e642076616c75652c207260448201527f6563697069656e74206d61792068617665207265766572746564000000000000606482015260840161089d565b6040516001600160a01b03831660248201526044810182905261094e90849063a9059cbb60e01b90606401612246565b600054610100900460ff166126005760405162461bcd60e51b815260040161089d90612e5a565b6097805460ff19169055565b600054610100900460ff166124895760405162461bcd60e51b815260040161089d90612e5a565b6000612688826040518060400160405280602081526020017f5361666545524332303a206c6f772d6c6576656c2063616c6c206661696c6564815250856001600160a01b03166127089092919063ffffffff16565b90508051600014806126a95750808060200190518101906126a99190612ee9565b61094e5760405162461bcd60e51b815260206004820152602a60248201527f5361666545524332303a204552433230206f7065726174696f6e20646964206e6044820152691bdd081cdd58d8d9595960b21b606482015260840161089d565b6060612717848460008561271f565b949350505050565b6060824710156127805760405162461bcd60e51b815260206004820152602660248201527f416464726573733a20696e73756666696369656e742062616c616e636520666f6044820152651c8818d85b1b60d21b606482015260840161089d565b600080866001600160a01b0316858760405161279c9190612f0b565b60006040518083038185875af1925050503d80600081146127d9576040519150601f19603f3d011682016040523d82523d6000602084013e6127de565b606091505b50915091506127ef878383876127fa565b979650505050505050565b60608315612869578251600003612862576001600160a01b0385163b6128625760405162461bcd60e51b815260206004820152601d60248201527f416464726573733a2063616c6c20746f206e6f6e2d636f6e7472616374000000604482015260640161089d565b5081612717565b612717838381511561287e5781518083602001fd5b8060405162461bcd60e51b815260040161089d9190612de1565b6000602082840312156128aa57600080fd5b81356001600160e01b03198116811461220b57600080fd5b6001600160a01b0381168114610a1057600080fd5b8035610f50816128c2565b6000602082840312156128f457600080fd5b813561220b816128c2565b60006020828403121561291157600080fd5b5035919050565b6000806040838503121561292b57600080fd5b82359150602083013561293d816128c2565b809150509250929050565b6000806040838503121561295b57600080fd5b8235612966816128c2565b946020939093013593505050565b6000806020838503121561298757600080fd5b823567ffffffffffffffff8082111561299f57600080fd5b818501915085601f8301126129b357600080fd5b8135818111156129c257600080fd5b8660208285010111156129d457600080fd5b60209290920196919550909350505050565b634e487b7160e01b600052604160045260246000fd5b60405160a0810167ffffffffffffffff81118282101715612a1f57612a1f6129e6565b60405290565b6000806000806000806000878903610160811215612a4257600080fd5b60a0811215612a5057600080fd5b50612a596129fc565b8835612a64816128c2565b81526020890135612a74816128c2565b60208201526040890135612a87816128c2565b60408201526060890135612a9a816128c2565b60608201526080890135612aad816128c2565b60808201529650612ac060a089016128d7565b9550612ace60c089016128d7565b9450612adc60e089016128d7565b9350612aeb61010089016128d7565b9250612afa61012089016128d7565b9150610140880135905092959891949750929550565b600080600060608486031215612b2557600080fd5b8335612b30816128c2565b92506020840135612b40816128c2565b929592945050506040919091013590565b60008085851115612b6157600080fd5b83861115612b6e57600080fd5b5050820193919092039150565b803560208310156108d957600019602084900360031b1b1692915050565b600060208284031215612bab57600080fd5b5051919050565b634e487b7160e01b600052601160045260246000fd5b818103818111156108d9576108d9612bb2565b60005b83811015612bf6578181015183820152602001612bde565b50506000910152565b600060208284031215612c1157600080fd5b815167ffffffffffffffff80821115612c2957600080fd5b818401915084601f830112612c3d57600080fd5b815181811115612c4f57612c4f6129e6565b604051601f8201601f19908116603f01168101908382118183101715612c7757612c776129e6565b81604052828152876020848701011115612c9057600080fd5b6127ef836020830160208801612bdb565b600060208284031215612cb357600080fd5b815160ff8116811461220b57600080fd5b60008151808452612cdc816020860160208601612bdb565b601f01601f19169290920160200192915050565b8581526001600160a01b038516602082015260a060408201819052600090612d1a90830186612cc4565b8281036060840152612d2c8186612cc4565b91505060ff831660808301529695505050505050565b604081526000612d556040830185612cc4565b905060018060a01b03831660208301529392505050565b7f416363657373436f6e74726f6c3a206163636f756e7420000000000000000000815260008351612da4816017850160208801612bdb565b7001034b99036b4b9b9b4b733903937b6329607d1b6017918401918201528351612dd5816028840160208801612bdb565b01602801949350505050565b60208152600061220b6020830184612cc4565b808201808211156108d9576108d9612bb2565b60008060008060808587031215612e1d57600080fd5b8451612e28816128c2565b6020860151909450612e39816128c2565b6040860151909350612e4a816128c2565b6060959095015193969295505050565b6020808252602b908201527f496e697469616c697a61626c653a20636f6e7472616374206973206e6f74206960408201526a6e697469616c697a696e6760a81b606082015260800190565b80820281158282048414176108d9576108d9612bb2565b634e487b7160e01b600052603260045260246000fd5b600081612ee157612ee1612bb2565b506000190190565b600060208284031215612efb57600080fd5b8151801515811461220b57600080fd5b60008251612f1d818460208701612bdb565b919091019291505056fea6d0b532cacea090bc411482cd491720e2eac14d48ce5d0402b8851e0bb2aec182b32d9ab5100db08aeb9a0e08b422d14851ec118736590462bf9c085a6e9448539440820030c4994db4e31b6b800deafd503688728f932addfe7a410515c14c5b94a8cd68affa84315f488cc2e6e456f761d334859cae8a073ef8fe13fb0ee6a264697066735822122086c8760c573c3a329c8b8d07e501c5f0701c05f631aba8e573e69c848fbad1d864736f6c63430008130033",
    "linkReferences": {}
  },
  "methodIdentifiers": {
    "ADAPTOR_MANAGER_ROLE()": "da51c71e",
    "DEFAULT_ADMIN_ROLE()": "a217fddf",
    "DEPOSIT_SIG()": "d41f1771",
    "MAP_TOKEN_SIG()": "f6451255",
    "NATIVE_ETH()": "011e1167",
    "NATIVE_IMX()": "7ab5e3ae",
    "PAUSER_ROLE()": "e63ab1e9",
    "UNLIMITED_DEPOSIT()": "68673a03",
    "UNPAUSER_ROLE()": "fb1bb9de",
    "VARIABLE_MANAGER_ROLE()": "26fe4fc3",
    "WITHDRAW_SIG()": "b1768065",
    "childERC20Bridge()": "106d5726",
    "childETHToken()": "dee1ef0d",
    "childTokenTemplate()": "b68ad1e4",
    "deposit(address,uint256)": "47e7ef24",
    "depositETH(uint256)": "5358fbda",
    "depositTo(address,address,uint256)": "f213159c",
    "depositToETH(address,uint256)": "e0410432",
    "getRoleAdmin(bytes32)": "248a9ca3",
    "grantAdaptorManagerRole(address)": "8f70121f",
    "grantPauserRole(address)": "6c11c21c",
    "grantRole(bytes32,address)": "2f2ff15d",
    "grantUnpauserRole(address)": "32968782",
    "grantVariableManagerRole(address)": "07b2b7ad",
    "hasRole(bytes32,address)": "91d14854",
    "imxCumulativeDepositLimit()": "67e4e189",
    "initialize((address,address,address,address,address),address,address,address,address,address,uint256)": "c880d915",
    "mapToken(address)": "f4a120f7",
    "onMessageReceive(bytes)": "7248c77c",
    "pause()": "8456cb59",
    "paused()": "5c975abb",
    "renounceRole(bytes32,address)": "36568abe",
    "revokeAdaptorManagerRole(address)": "89c65d41",
    "revokePauserRole(address)": "f865af08",
    "revokeRole(bytes32,address)": "d547741f",
    "revokeUnpauserRole(address)": "2540e2da",
    "revokeVariableManagerRole(address)": "6066ae87",
    "rootBridgeAdaptor()": "499fa04b",
    "rootIMXToken()": "8c956990",
    "rootTokenToChildToken(address)": "7efab4f5",
    "rootWETHToken()": "d8376716",
    "supportsInterface(bytes4)": "01ffc9a7",
    "unpause()": "3f4ba83a",
    "updateImxCumulativeDepositLimit(uint256)": "d68d5fd6",
    "updateRootBridgeAdaptor(address)": "a8deae56"
  },
  "id": 94
}